{
  "contractName": "Storage",
  "abi": [
    {
      "inputs": [],
      "payable": false,
      "stateMutability": "nonpayable",
      "type": "constructor"
    },
    {
      "constant": false,
      "inputs": [
        {
          "name": "answer",
          "type": "uint256"
        },
        {
          "name": "addr",
          "type": "address"
        }
      ],
      "name": "submitAnswer",
      "outputs": [],
      "payable": false,
      "stateMutability": "nonpayable",
      "type": "function"
    },
    {
      "constant": true,
      "inputs": [],
      "name": "getWinners",
      "outputs": [
        {
          "name": "",
          "type": "address[]"
        }
      ],
      "payable": false,
      "stateMutability": "view",
      "type": "function"
    }
  ],
  "bytecode": "0x608060405234801561001057600080fd5b50602a600081905550610239806100286000396000f30060806040526004361061004c576000357c0100000000000000000000000000000000000000000000000000000000900463ffffffff168063d91144cb14610051578063df15c37e1461009e575b600080fd5b34801561005d57600080fd5b5061009c60048036038101908080359060200190929190803573ffffffffffffffffffffffffffffffffffffffff16906020019092919050505061010a565b005b3480156100aa57600080fd5b506100b361017f565b6040518080602001828103825283818151815260200191508051906020019060200280838360005b838110156100f65780820151818401526020810190506100db565b505050509050019250505060405180910390f35b60005482141561017b5760018190806001815401808255809150509060018203906000526020600020016000909192909190916101000a81548173ffffffffffffffffffffffffffffffffffffffff021916908373ffffffffffffffffffffffffffffffffffffffff160217905550505b5050565b6060600180548060200260200160405190810160405280929190818152602001828054801561020357602002820191906000526020600020905b8160009054906101000a900473ffffffffffffffffffffffffffffffffffffffff1673ffffffffffffffffffffffffffffffffffffffff16815260200190600101908083116101b9575b50505050509050905600a165627a7a72305820502d1d945ccf4b7092b6c023f7f9e7b5f1e48d6c5abbd86d8425f8bebcaee03b0029",
  "source": "pragma solidity ^0.4.21;\n\ncontract Storage {\n    uint256 solution;\n    address[] winners;\n\n    constructor() public {\n        solution = 42;\n    }\n\n    function submitAnswer(uint256 answer, address addr) public {\n        if (answer == solution) {\n            winners.push(addr);\n        }\n    }\n\n    function getWinners() public view returns (address[]) {\n        return winners;\n    }\n}",
  "sourcePath": "/Users/jon/coding/numberchecker/contracts/Storage.sol",
  "compiler": {
    "name": "solc",
    "version": "0.4.24+commit.e67f0147.Emscripten.clang"
  },
  "schemaVersion": "2.0.1",
  "updatedAt": "2018-08-02T04:16:09.393Z"
}