{
  "contractName": "Storage",
  "abi": [
    {
      "inputs": [],
      "payable": false,
      "stateMutability": "nonpayable",
      "type": "constructor"
    },
    {
      "constant": false,
      "inputs": [
        {
          "name": "answer",
          "type": "string"
        },
        {
          "name": "addr",
          "type": "address"
        }
      ],
      "name": "submitAnswer",
      "outputs": [],
      "payable": false,
      "stateMutability": "nonpayable",
      "type": "function"
    },
    {
      "constant": true,
      "inputs": [],
      "name": "getWinners",
      "outputs": [
        {
          "name": "",
          "type": "address[]"
        }
      ],
      "payable": false,
      "stateMutability": "view",
      "type": "function"
    }
  ],
  "bytecode": "0x608060405234801561001057600080fd5b507f60d843763deee5470f00ae2d7b2f00f5a4ad65f23ff60bb2d362c4516a0e9adb600081600019169055506103968061004b6000396000f30060806040526004361061004c576000357c0100000000000000000000000000000000000000000000000000000000900463ffffffff168063b8489ddb14610051578063df15c37e146100da575b600080fd5b34801561005d57600080fd5b506100d8600480360381019080803590602001908201803590602001908080601f0160208091040260200160405190810160405280939291908181526020018383808284378201915050505050509192919290803573ffffffffffffffffffffffffffffffffffffffff169060200190929190505050610146565b005b3480156100e657600080fd5b506100ef6102dc565b6040518080602001828103825283818151815260200191508051906020019060200280838360005b83811015610132578082015181840152602081019050610117565b505050509050019250505060405180910390f35b60606000836040516020018082805190602001908083835b602083101515610183578051825260208201915060208101905060208303925061015e565b6001836020036101000a03801982511681845116808217855250505050505090500191505060405160208183030381529060405291506002826040518082805190602001908083835b6020831015156101f157805182526020820191506020810190506020830392506101cc565b6001836020036101000a0380198251168184511680821785525050505050509050019150506020604051808303816000865af1158015610235573d6000803e3d6000fd5b5050506040513d602081101561024a57600080fd5b8101908080519060200190929190505050905060005460001916816000191614156102d65760018390806001815401808255809150509060018203906000526020600020016000909192909190916101000a81548173ffffffffffffffffffffffffffffffffffffffff021916908373ffffffffffffffffffffffffffffffffffffffff160217905550505b50505050565b6060600180548060200260200160405190810160405280929190818152602001828054801561036057602002820191906000526020600020905b8160009054906101000a900473ffffffffffffffffffffffffffffffffffffffff1673ffffffffffffffffffffffffffffffffffffffff1681526020019060010190808311610316575b50505050509050905600a165627a7a723058200b0f69ee29816a31c04cb0569c50898a0939e2079da1e797d33cb0f965c94d790029",
  "source": "pragma solidity ^0.4.21;\n\ncontract Storage {\n    bytes32 hashedSolution;\n    address[] winners;\n\n    constructor() public {\n        hashedSolution = hex\"60d843763deee5470f00ae2d7b2f00f5a4ad65f23ff60bb2d362c4516a0e9adb\";\n    }\n\n    function submitAnswer(string answer, address addr) public {\n        bytes memory encodedAnswer = abi.encodePacked(answer);\n        bytes32 hashedAnswer = sha256(encodedAnswer);\n\n        if (hashedAnswer == hashedSolution) {\n            winners.push(addr);\n        }\n    }\n\n    function getWinners() public view returns (address[]) {\n        return winners;\n    }\n}",
  "sourcePath": "/Users/jon/coding/numberchecker/contracts/Storage.sol",
  "compiler": {
    "name": "solc",
    "version": "0.4.24+commit.e67f0147.Emscripten.clang"
  },
  "schemaVersion": "2.0.1",
  "updatedAt": "2018-08-02T04:43:56.373Z"
}