{
  "contractName": "Storage",
  "abi": [
    {
      "inputs": [],
      "payable": false,
      "stateMutability": "nonpayable",
      "type": "constructor"
    },
    {
      "constant": false,
      "inputs": [
        {
          "name": "answer",
          "type": "string"
        },
        {
          "name": "addr",
          "type": "address"
        }
      ],
      "name": "submitAnswer",
      "outputs": [],
      "payable": false,
      "stateMutability": "nonpayable",
      "type": "function"
    },
    {
      "constant": true,
      "inputs": [],
      "name": "getSolvers",
      "outputs": [
        {
          "name": "",
          "type": "address[]"
        }
      ],
      "payable": false,
      "stateMutability": "view",
      "type": "function"
    }
  ],
  "bytecode": "0x608060405234801561001057600080fd5b507f60d843763deee5470f00ae2d7b2f00f5a4ad65f23ff60bb2d362c4516a0e9adb600081600019169055506104518061004b6000396000f30060806040526004361061004c576000357c0100000000000000000000000000000000000000000000000000000000900463ffffffff1680638bc1e8eb14610051578063b8489ddb146100bd575b600080fd5b34801561005d57600080fd5b50610066610146565b6040518080602001828103825283818151815260200191508051906020019060200280838360005b838110156100a957808201518184015260208101905061008e565b505050509050019250505060405180910390f35b3480156100c957600080fd5b50610144600480360381019080803590602001908201803590602001908080601f0160208091040260200160405190810160405280939291908181526020018383808284378201915050505050509192919290803573ffffffffffffffffffffffffffffffffffffffff1690602001909291905050506101d4565b005b606060018054806020026020016040519081016040528092919081815260200182805480156101ca57602002820191906000526020600020905b8160009054906101000a900473ffffffffffffffffffffffffffffffffffffffff1673ffffffffffffffffffffffffffffffffffffffff1681526020019060010190808311610180575b5050505050905090565b60606000836040516020018082805190602001908083835b60208310151561021157805182526020820191506020810190506020830392506101ec565b6001836020036101000a03801982511681845116808217855250505050505090500191505060405160208183030381529060405291506002826040518082805190602001908083835b60208310151561027f578051825260208201915060208101905060208303925061025a565b6001836020036101000a0380198251168184511680821785525050505050509050019150506020604051808303816000865af11580156102c3573d6000803e3d6000fd5b5050506040513d60208110156102d857600080fd5b8101908080519060200190929190505050905060005460001916816000191614801561030a57506103088361037c565b155b156103765760018390806001815401808255809150509060018203906000526020600020016000909192909190916101000a81548173ffffffffffffffffffffffffffffffffffffffff021916908373ffffffffffffffffffffffffffffffffffffffff160217905550505b50505050565b60008060006001805490509150600090505b81811015610419578373ffffffffffffffffffffffffffffffffffffffff166001828154811015156103bc57fe5b9060005260206000200160009054906101000a900473ffffffffffffffffffffffffffffffffffffffff1673ffffffffffffffffffffffffffffffffffffffff16141561040c576001925061041e565b808060010191505061038e565b600092505b50509190505600a165627a7a72305820ad73ec9efe7ccf84217ddef75845305737a9715ea4f55ffa0ea3fea7021f91840029",
  "source": "pragma solidity ^0.4.21;\n\ncontract Storage {\n    bytes32 hashedSolution;\n    address[] solvers;\n\n    constructor() public {\n        hashedSolution = hex\"60d843763deee5470f00ae2d7b2f00f5a4ad65f23ff60bb2d362c4516a0e9adb\";\n    }\n\n    function submitAnswer(string answer, address addr) public {\n        bytes memory encodedAnswer = abi.encodePacked(answer);\n        bytes32 hashedAnswer = sha256(encodedAnswer);\n\n        if (hashedAnswer == hashedSolution && !hasAddressAlreadyWon(addr)) {\n            solvers.push(addr);\n        }\n    }\n\n    function getSolvers() public view returns (address[]) {\n        return solvers;\n    }\n\n    function hasAddressAlreadyWon(address addr) private view returns (bool) {\n        // To prevent an address from being added twice to solvers\n\n        uint solversLength = solvers.length;\n\n        for (uint i = 0; i < solversLength; i++) {\n            if (solvers[i] == addr) {\n                return true;\n            }\n        }\n\n        return false;\n    }\n}",
  "sourcePath": "/Users/jon/coding/numberchecker/contracts/Storage.sol",
  "compiler": {
    "name": "solc",
    "version": "0.4.24+commit.e67f0147.Emscripten.clang"
  },
  "schemaVersion": "2.0.1",
  "updatedAt": "2018-08-02T05:04:24.771Z"
}